{
  "contractName": "DiacomContract",
  "abi": [
    {
      "inputs": [],
      "stateMutability": "nonpayable",
      "type": "constructor"
    },
    {
      "inputs": [],
      "name": "InstitutionName",
      "outputs": [
        {
          "internalType": "string",
          "name": "",
          "type": "string"
        }
      ],
      "stateMutability": "view",
      "type": "function",
      "constant": true
    },
    {
      "inputs": [],
      "name": "Manufacturer",
      "outputs": [
        {
          "internalType": "string",
          "name": "",
          "type": "string"
        }
      ],
      "stateMutability": "view",
      "type": "function",
      "constant": true
    },
    {
      "inputs": [],
      "name": "PatientName",
      "outputs": [
        {
          "internalType": "string",
          "name": "",
          "type": "string"
        }
      ],
      "stateMutability": "view",
      "type": "function",
      "constant": true
    },
    {
      "inputs": [],
      "name": "PhysicianName",
      "outputs": [
        {
          "internalType": "string",
          "name": "",
          "type": "string"
        }
      ],
      "stateMutability": "view",
      "type": "function",
      "constant": true
    },
    {
      "inputs": [],
      "name": "SeriesDate",
      "outputs": [
        {
          "internalType": "string",
          "name": "",
          "type": "string"
        }
      ],
      "stateMutability": "view",
      "type": "function",
      "constant": true
    },
    {
      "inputs": [],
      "name": "SeriesNumber",
      "outputs": [
        {
          "internalType": "uint256",
          "name": "",
          "type": "uint256"
        }
      ],
      "stateMutability": "view",
      "type": "function",
      "constant": true
    },
    {
      "inputs": [],
      "name": "SeriesTime",
      "outputs": [
        {
          "internalType": "string",
          "name": "",
          "type": "string"
        }
      ],
      "stateMutability": "view",
      "type": "function",
      "constant": true
    },
    {
      "inputs": [],
      "name": "StudyDate",
      "outputs": [
        {
          "internalType": "string",
          "name": "",
          "type": "string"
        }
      ],
      "stateMutability": "view",
      "type": "function",
      "constant": true
    },
    {
      "inputs": [],
      "name": "StudyDescription",
      "outputs": [
        {
          "internalType": "string",
          "name": "",
          "type": "string"
        }
      ],
      "stateMutability": "view",
      "type": "function",
      "constant": true
    },
    {
      "inputs": [
        {
          "internalType": "string",
          "name": "_Manufacturer",
          "type": "string"
        },
        {
          "internalType": "string",
          "name": "_SeriesTime",
          "type": "string"
        },
        {
          "internalType": "string",
          "name": "_PatientName",
          "type": "string"
        },
        {
          "internalType": "string",
          "name": "_InstitutionName",
          "type": "string"
        },
        {
          "internalType": "string",
          "name": "_PhysicianName",
          "type": "string"
        },
        {
          "internalType": "string",
          "name": "_StudyDescription",
          "type": "string"
        },
        {
          "internalType": "string",
          "name": "_StudyDate",
          "type": "string"
        },
        {
          "internalType": "string",
          "name": "_SeriesDate",
          "type": "string"
        },
        {
          "internalType": "uint256",
          "name": "_SeriesNumber",
          "type": "uint256"
        }
      ],
      "name": "set",
      "outputs": [],
      "stateMutability": "nonpayable",
      "type": "function"
    },
    {
      "inputs": [],
      "name": "getManufacturer",
      "outputs": [
        {
          "internalType": "string",
          "name": "",
          "type": "string"
        }
      ],
      "stateMutability": "view",
      "type": "function",
      "constant": true
    },
    {
      "inputs": [],
      "name": "getSeriesTime",
      "outputs": [
        {
          "internalType": "string",
          "name": "",
          "type": "string"
        }
      ],
      "stateMutability": "view",
      "type": "function",
      "constant": true
    },
    {
      "inputs": [],
      "name": "getPatientName",
      "outputs": [
        {
          "internalType": "string",
          "name": "",
          "type": "string"
        }
      ],
      "stateMutability": "view",
      "type": "function",
      "constant": true
    },
    {
      "inputs": [],
      "name": "getInstitutionName",
      "outputs": [
        {
          "internalType": "string",
          "name": "",
          "type": "string"
        }
      ],
      "stateMutability": "view",
      "type": "function",
      "constant": true
    },
    {
      "inputs": [],
      "name": "getPhyscianName",
      "outputs": [
        {
          "internalType": "string",
          "name": "",
          "type": "string"
        }
      ],
      "stateMutability": "view",
      "type": "function",
      "constant": true
    },
    {
      "inputs": [],
      "name": "getStudyDescription",
      "outputs": [
        {
          "internalType": "string",
          "name": "",
          "type": "string"
        }
      ],
      "stateMutability": "view",
      "type": "function",
      "constant": true
    },
    {
      "inputs": [],
      "name": "getStudyDate",
      "outputs": [
        {
          "internalType": "string",
          "name": "",
          "type": "string"
        }
      ],
      "stateMutability": "view",
      "type": "function",
      "constant": true
    },
    {
      "inputs": [],
      "name": "getSeriesDate",
      "outputs": [
        {
          "internalType": "string",
          "name": "",
          "type": "string"
        }
      ],
      "stateMutability": "view",
      "type": "function",
      "constant": true
    },
    {
      "inputs": [],
      "name": "getSeriesNumbe",
      "outputs": [
        {
          "internalType": "uint256",
          "name": "",
          "type": "uint256"
        }
      ],
      "stateMutability": "view",
      "type": "function",
      "constant": true
    }
  ],
  "bytecode": "0x60806040523480156200001157600080fd5b506040518060200160405280600081525060009081620000329190620003a2565b506040518060200160405280600081525060019081620000539190620003a2565b506040518060200160405280600081525060029081620000749190620003a2565b506040518060200160405280600081525060039081620000959190620003a2565b506040518060200160405280600081525060049081620000b69190620003a2565b506040518060200160405280600081525060059081620000d79190620003a2565b506040518060200160405280600081525060069081620000f89190620003a2565b506040518060200160405280600081525060079081620001199190620003a2565b50600060088190555062000489565b600081519050919050565b7f4e487b7100000000000000000000000000000000000000000000000000000000600052604160045260246000fd5b7f4e487b7100000000000000000000000000000000000000000000000000000000600052602260045260246000fd5b60006002820490506001821680620001aa57607f821691505b602082108103620001c057620001bf62000162565b5b50919050565b60008190508160005260206000209050919050565b60006020601f8301049050919050565b600082821b905092915050565b6000600883026200022a7fffffffffffffffffffffffffffffffffffffffffffffffffffffffffffffffff82620001eb565b620002368683620001eb565b95508019841693508086168417925050509392505050565b6000819050919050565b6000819050919050565b6000620002836200027d62000277846200024e565b62000258565b6200024e565b9050919050565b6000819050919050565b6200029f8362000262565b620002b7620002ae826200028a565b848454620001f8565b825550505050565b600090565b620002ce620002bf565b620002db81848462000294565b505050565b5b818110156200030357620002f7600082620002c4565b600181019050620002e1565b5050565b601f82111562000352576200031c81620001c6565b6200032784620001db565b8101602085101562000337578190505b6200034f6200034685620001db565b830182620002e0565b50505b505050565b600082821c905092915050565b6000620003776000198460080262000357565b1980831691505092915050565b600062000392838362000364565b9150826002028217905092915050565b620003ad8262000128565b67ffffffffffffffff811115620003c957620003c862000133565b5b620003d5825462000191565b620003e282828562000307565b600060209050601f8311600181146200041a576000841562000405578287015190505b62000411858262000384565b86555062000481565b601f1984166200042a86620001c6565b60005b8281101562000454578489015182556001820191506020850194506020810190506200042d565b8683101562000474578489015162000470601f89168262000364565b8355505b6001600288020188555050505b505050505050565b61142280620004996000396000f3fe608060405234801561001057600080fd5b50600436106101215760003560e01c806382b34d46116100ad578063b1db46be11610071578063b1db46be146102ca578063b2cf28af146102e8578063c41e733e14610304578063c571433714610322578063ca477dad1461034057610121565b806382b34d461461023457806386ada8ce14610252578063870be7dd14610270578063aa82cf361461028e578063ab6db5dc146102ac57610121565b80632f696e16116100f45780632f696e161461019e57806344488d92146101bc5780635bb77439146101da57806370856b23146101f857806380e7687a1461021657610121565b806304b0cdda146101265780630554296814610144578063069ec19a146101625780632b3f3bdb14610180575b600080fd5b61012e61035e565b60405161013b9190610d99565b60405180910390f35b61014c6103f0565b6040516101599190610d99565b60405180910390f35b61016a61047e565b6040516101779190610dd4565b60405180910390f35b610188610488565b6040516101959190610d99565b60405180910390f35b6101a6610516565b6040516101b39190610d99565b60405180910390f35b6101c46105a8565b6040516101d19190610d99565b60405180910390f35b6101e2610636565b6040516101ef9190610d99565b60405180910390f35b6102006106c4565b60405161020d9190610d99565b60405180910390f35b61021e610756565b60405161022b9190610d99565b60405180910390f35b61023c6107e8565b6040516102499190610d99565b60405180910390f35b61025a610876565b6040516102679190610d99565b60405180910390f35b610278610908565b6040516102859190610d99565b60405180910390f35b61029661099a565b6040516102a39190610d99565b60405180910390f35b6102b4610a2c565b6040516102c19190610d99565b60405180910390f35b6102d2610aba565b6040516102df9190610d99565b60405180910390f35b61030260048036038101906102fd9190610f64565b610b4c565b005b61030c610bde565b6040516103199190610d99565b60405180910390f35b61032a610c6c565b6040516103379190610d99565b60405180910390f35b610348610cfa565b6040516103559190610dd4565b60405180910390f35b60606000805461036d9061113d565b80601f01602080910402602001604051908101604052809291908181526020018280546103999061113d565b80156103e65780601f106103bb576101008083540402835291602001916103e6565b820191906000526020600020905b8154815290600101906020018083116103c957829003601f168201915b5050505050905090565b600180546103fd9061113d565b80601f01602080910402602001604051908101604052809291908181526020018280546104299061113d565b80156104765780601f1061044b57610100808354040283529160200191610476565b820191906000526020600020905b81548152906001019060200180831161045957829003601f168201915b505050505081565b6000600854905090565b600680546104959061113d565b80601f01602080910402602001604051908101604052809291908181526020018280546104c19061113d565b801561050e5780601f106104e35761010080835404028352916020019161050e565b820191906000526020600020905b8154815290600101906020018083116104f157829003601f168201915b505050505081565b6060600680546105259061113d565b80601f01602080910402602001604051908101604052809291908181526020018280546105519061113d565b801561059e5780601f106105735761010080835404028352916020019161059e565b820191906000526020600020905b81548152906001019060200180831161058157829003601f168201915b5050505050905090565b600280546105b59061113d565b80601f01602080910402602001604051908101604052809291908181526020018280546105e19061113d565b801561062e5780601f106106035761010080835404028352916020019161062e565b820191906000526020600020905b81548152906001019060200180831161061157829003601f168201915b505050505081565b600780546106439061113d565b80601f016020809104026020016040519081016040528092919081815260200182805461066f9061113d565b80156106bc5780601f10610691576101008083540402835291602001916106bc565b820191906000526020600020905b81548152906001019060200180831161069f57829003601f168201915b505050505081565b6060600380546106d39061113d565b80601f01602080910402602001604051908101604052809291908181526020018280546106ff9061113d565b801561074c5780601f106107215761010080835404028352916020019161074c565b820191906000526020600020905b81548152906001019060200180831161072f57829003601f168201915b5050505050905090565b6060600780546107659061113d565b80601f01602080910402602001604051908101604052809291908181526020018280546107919061113d565b80156107de5780601f106107b3576101008083540402835291602001916107de565b820191906000526020600020905b8154815290600101906020018083116107c157829003601f168201915b5050505050905090565b600480546107f59061113d565b80601f01602080910402602001604051908101604052809291908181526020018280546108219061113d565b801561086e5780601f106108435761010080835404028352916020019161086e565b820191906000526020600020905b81548152906001019060200180831161085157829003601f168201915b505050505081565b6060600180546108859061113d565b80601f01602080910402602001604051908101604052809291908181526020018280546108b19061113d565b80156108fe5780601f106108d3576101008083540402835291602001916108fe565b820191906000526020600020905b8154815290600101906020018083116108e157829003601f168201915b5050505050905090565b6060600280546109179061113d565b80601f01602080910402602001604051908101604052809291908181526020018280546109439061113d565b80156109905780601f1061096557610100808354040283529160200191610990565b820191906000526020600020905b81548152906001019060200180831161097357829003601f168201915b5050505050905090565b6060600580546109a99061113d565b80601f01602080910402602001604051908101604052809291908181526020018280546109d59061113d565b8015610a225780601f106109f757610100808354040283529160200191610a22565b820191906000526020600020905b815481529060010190602001808311610a0557829003601f168201915b5050505050905090565b60008054610a399061113d565b80601f0160208091040260200160405190810160405280929190818152602001828054610a659061113d565b8015610ab25780601f10610a8757610100808354040283529160200191610ab2565b820191906000526020600020905b815481529060010190602001808311610a9557829003601f168201915b505050505081565b606060048054610ac99061113d565b80601f0160208091040260200160405190810160405280929190818152602001828054610af59061113d565b8015610b425780601f10610b1757610100808354040283529160200191610b42565b820191906000526020600020905b815481529060010190602001808311610b2557829003601f168201915b5050505050905090565b8860009081610b5b919061131a565b508760019081610b6b919061131a565b508660029081610b7b919061131a565b50806008819055508560039081610b92919061131a565b508460049081610ba2919061131a565b508360059081610bb2919061131a565b508260069081610bc2919061131a565b508160079081610bd2919061131a565b50505050505050505050565b60038054610beb9061113d565b80601f0160208091040260200160405190810160405280929190818152602001828054610c179061113d565b8015610c645780601f10610c3957610100808354040283529160200191610c64565b820191906000526020600020905b815481529060010190602001808311610c4757829003601f168201915b505050505081565b60058054610c799061113d565b80601f0160208091040260200160405190810160405280929190818152602001828054610ca59061113d565b8015610cf25780601f10610cc757610100808354040283529160200191610cf2565b820191906000526020600020905b815481529060010190602001808311610cd557829003601f168201915b505050505081565b60085481565b600081519050919050565b600082825260208201905092915050565b60005b83811015610d3a578082015181840152602081019050610d1f565b83811115610d49576000848401525b50505050565b6000601f19601f8301169050919050565b6000610d6b82610d00565b610d758185610d0b565b9350610d85818560208601610d1c565b610d8e81610d4f565b840191505092915050565b60006020820190508181036000830152610db38184610d60565b905092915050565b6000819050919050565b610dce81610dbb565b82525050565b6000602082019050610de96000830184610dc5565b92915050565b6000604051905090565b600080fd5b600080fd5b600080fd5b600080fd5b7f4e487b7100000000000000000000000000000000000000000000000000000000600052604160045260246000fd5b610e4582610d4f565b810181811067ffffffffffffffff82111715610e6457610e63610e0d565b5b80604052505050565b6000610e77610def565b9050610e838282610e3c565b919050565b600067ffffffffffffffff821115610ea357610ea2610e0d565b5b610eac82610d4f565b9050602081019050919050565b82818337600083830152505050565b6000610edb610ed684610e88565b610e6d565b905082815260208101848484011115610ef757610ef6610e08565b5b610f02848285610eb9565b509392505050565b600082601f830112610f1f57610f1e610e03565b5b8135610f2f848260208601610ec8565b91505092915050565b610f4181610dbb565b8114610f4c57600080fd5b50565b600081359050610f5e81610f38565b92915050565b60008060008060008060008060006101208a8c031215610f8757610f86610df9565b5b60008a013567ffffffffffffffff811115610fa557610fa4610dfe565b5b610fb18c828d01610f0a565b99505060208a013567ffffffffffffffff811115610fd257610fd1610dfe565b5b610fde8c828d01610f0a565b98505060408a013567ffffffffffffffff811115610fff57610ffe610dfe565b5b61100b8c828d01610f0a565b97505060608a013567ffffffffffffffff81111561102c5761102b610dfe565b5b6110388c828d01610f0a565b96505060808a013567ffffffffffffffff81111561105957611058610dfe565b5b6110658c828d01610f0a565b95505060a08a013567ffffffffffffffff81111561108657611085610dfe565b5b6110928c828d01610f0a565b94505060c08a013567ffffffffffffffff8111156110b3576110b2610dfe565b5b6110bf8c828d01610f0a565b93505060e08a013567ffffffffffffffff8111156110e0576110df610dfe565b5b6110ec8c828d01610f0a565b9250506101006110fe8c828d01610f4f565b9150509295985092959850929598565b7f4e487b7100000000000000000000000000000000000000000000000000000000600052602260045260246000fd5b6000600282049050600182168061115557607f821691505b6020821081036111685761116761110e565b5b50919050565b60008190508160005260206000209050919050565b60006020601f8301049050919050565b600082821b905092915050565b6000600883026111d07fffffffffffffffffffffffffffffffffffffffffffffffffffffffffffffffff82611193565b6111da8683611193565b95508019841693508086168417925050509392505050565b6000819050919050565b600061121761121261120d84610dbb565b6111f2565b610dbb565b9050919050565b6000819050919050565b611231836111fc565b61124561123d8261121e565b8484546111a0565b825550505050565b600090565b61125a61124d565b611265818484611228565b505050565b5b818110156112895761127e600082611252565b60018101905061126b565b5050565b601f8211156112ce5761129f8161116e565b6112a884611183565b810160208510156112b7578190505b6112cb6112c385611183565b83018261126a565b50505b505050565b600082821c905092915050565b60006112f1600019846008026112d3565b1980831691505092915050565b600061130a83836112e0565b9150826002028217905092915050565b61132382610d00565b67ffffffffffffffff81111561133c5761133b610e0d565b5b611346825461113d565b61135182828561128d565b600060209050601f8311600181146113845760008415611372578287015190505b61137c85826112fe565b8655506113e4565b601f1984166113928661116e565b60005b828110156113ba57848901518255600182019150602085019450602081019050611395565b868310156113d757848901516113d3601f8916826112e0565b8355505b6001600288020188555050505b50505050505056fea2646970667358221220d6035262077786b8a96fb9b4c0ab8680f3cae09c45c77116f1431fcbae45cca064736f6c634300080f0033",
  "immutableReferences": {},
  "source": "// SPDX-License-Identifier: MIT\npragma solidity ^0.8.15;\n\n\ncontract DiacomContract {\n\n    string public Manufacturer;\n    string public SeriesTime;\n    string public PatientName;\n    string public InstitutionName;\n    string public PhysicianName;\n    string public StudyDescription;\n    string public StudyDate;\n    string public SeriesDate;\n    uint public SeriesNumber;\n\n    constructor() {\n        Manufacturer = \"\";\n        SeriesTime = \"\";\n        PatientName = \"\";\n        InstitutionName = \"\";\n        PhysicianName = \"\";\n        StudyDescription = \"\";\n        StudyDate = \"\";\n        SeriesDate = \"\";\n        SeriesNumber = 0;\n    }\n\n    function set(\n        string memory _Manufacturer,\n        string memory _SeriesTime,\n        string memory _PatientName,\n        string memory _InstitutionName,\n        string memory _PhysicianName,\n        string memory _StudyDescription,\n        string memory _StudyDate,\n        string memory _SeriesDate,\n        uint _SeriesNumber\n    ) public {\n        Manufacturer = _Manufacturer;\n        SeriesTime = _SeriesTime;\n        PatientName = _PatientName;\n        SeriesNumber = _SeriesNumber;\n        InstitutionName = _InstitutionName;\n        PhysicianName = _PhysicianName;\n        StudyDescription = _StudyDescription;\n        StudyDate = _StudyDate;\n        SeriesDate = _SeriesDate; \n    }\n\n    function getManufacturer() view public returns (string memory) {\n        return Manufacturer;\n    }\n\n    function getSeriesTime() view public returns (string memory) {\n        return SeriesTime;\n    }\n\n    function getPatientName() view public returns (string memory) {\n        return PatientName;\n    }\n\n    function getInstitutionName() view public returns (string memory) {\n        return InstitutionName;\n    }\n\n    function getPhyscianName() view public returns (string memory) {\n        return PhysicianName;\n    }\n\n    function getStudyDescription() view public returns (string memory) {\n        return StudyDescription;\n    }\n\n    function getStudyDate() view public returns (string memory) {\n        return StudyDate;\n    }\n\n    function getSeriesDate() view public returns (string memory) {\n        return SeriesDate;\n    }\n\n    function getSeriesNumbe() view public returns (uint) {\n        return SeriesNumber;\n    }\n\n}",
  "sourcePath": "/mnt/d/Projects/chainsaw/contracts/DiacomContract.sol",
  "compiler": {
    "name": "solc",
    "version": "0.8.15+commit.e14f2714.Emscripten.clang"
  },
  "schemaVersion": "3.4.10",
  "updatedAt": "2022-11-11T13:23:50.633Z",
  "networkType": "ethereum",
  "devdoc": {
    "kind": "dev",
    "methods": {},
    "version": 1
  },
  "userdoc": {
    "kind": "user",
    "methods": {},
    "version": 1
  }
}