{
  "contractName": "MedicalExchange",
  "abi": [
    {
      "inputs": [],
      "stateMutability": "nonpayable",
      "type": "constructor"
    },
    {
      "anonymous": false,
      "inputs": [
        {
          "indexed": false,
          "internalType": "address",
          "name": "previousAdmin",
          "type": "address"
        },
        {
          "indexed": false,
          "internalType": "address",
          "name": "newAdmin",
          "type": "address"
        }
      ],
      "name": "AdminChanged",
      "type": "event"
    },
    {
      "anonymous": false,
      "inputs": [
        {
          "indexed": true,
          "internalType": "address",
          "name": "owner",
          "type": "address"
        },
        {
          "indexed": true,
          "internalType": "address",
          "name": "spender",
          "type": "address"
        },
        {
          "indexed": false,
          "internalType": "uint256",
          "name": "value",
          "type": "uint256"
        }
      ],
      "name": "Approval",
      "type": "event"
    },
    {
      "anonymous": false,
      "inputs": [
        {
          "indexed": true,
          "internalType": "address",
          "name": "beacon",
          "type": "address"
        }
      ],
      "name": "BeaconUpgraded",
      "type": "event"
    },
    {
      "anonymous": false,
      "inputs": [
        {
          "indexed": false,
          "internalType": "uint8",
          "name": "version",
          "type": "uint8"
        }
      ],
      "name": "Initialized",
      "type": "event"
    },
    {
      "anonymous": false,
      "inputs": [
        {
          "indexed": true,
          "internalType": "address",
          "name": "previousOwner",
          "type": "address"
        },
        {
          "indexed": true,
          "internalType": "address",
          "name": "newOwner",
          "type": "address"
        }
      ],
      "name": "OwnershipTransferred",
      "type": "event"
    },
    {
      "anonymous": false,
      "inputs": [
        {
          "indexed": false,
          "internalType": "address",
          "name": "account",
          "type": "address"
        }
      ],
      "name": "Paused",
      "type": "event"
    },
    {
      "anonymous": false,
      "inputs": [
        {
          "indexed": true,
          "internalType": "address",
          "name": "from",
          "type": "address"
        },
        {
          "indexed": true,
          "internalType": "address",
          "name": "to",
          "type": "address"
        },
        {
          "indexed": false,
          "internalType": "uint256",
          "name": "value",
          "type": "uint256"
        }
      ],
      "name": "Transfer",
      "type": "event"
    },
    {
      "anonymous": false,
      "inputs": [
        {
          "indexed": false,
          "internalType": "address",
          "name": "account",
          "type": "address"
        }
      ],
      "name": "Unpaused",
      "type": "event"
    },
    {
      "anonymous": false,
      "inputs": [
        {
          "indexed": true,
          "internalType": "address",
          "name": "implementation",
          "type": "address"
        }
      ],
      "name": "Upgraded",
      "type": "event"
    },
    {
      "inputs": [
        {
          "internalType": "address",
          "name": "owner",
          "type": "address"
        },
        {
          "internalType": "address",
          "name": "spender",
          "type": "address"
        }
      ],
      "name": "allowance",
      "outputs": [
        {
          "internalType": "uint256",
          "name": "",
          "type": "uint256"
        }
      ],
      "stateMutability": "view",
      "type": "function"
    },
    {
      "inputs": [
        {
          "internalType": "address",
          "name": "spender",
          "type": "address"
        },
        {
          "internalType": "uint256",
          "name": "amount",
          "type": "uint256"
        }
      ],
      "name": "approve",
      "outputs": [
        {
          "internalType": "bool",
          "name": "",
          "type": "bool"
        }
      ],
      "stateMutability": "nonpayable",
      "type": "function"
    },
    {
      "inputs": [
        {
          "internalType": "address",
          "name": "account",
          "type": "address"
        }
      ],
      "name": "balanceOf",
      "outputs": [
        {
          "internalType": "uint256",
          "name": "",
          "type": "uint256"
        }
      ],
      "stateMutability": "view",
      "type": "function"
    },
    {
      "inputs": [
        {
          "internalType": "uint256",
          "name": "amount",
          "type": "uint256"
        }
      ],
      "name": "burn",
      "outputs": [],
      "stateMutability": "nonpayable",
      "type": "function"
    },
    {
      "inputs": [
        {
          "internalType": "address",
          "name": "account",
          "type": "address"
        },
        {
          "internalType": "uint256",
          "name": "amount",
          "type": "uint256"
        }
      ],
      "name": "burnFrom",
      "outputs": [],
      "stateMutability": "nonpayable",
      "type": "function"
    },
    {
      "inputs": [],
      "name": "decimals",
      "outputs": [
        {
          "internalType": "uint8",
          "name": "",
          "type": "uint8"
        }
      ],
      "stateMutability": "view",
      "type": "function"
    },
    {
      "inputs": [
        {
          "internalType": "address",
          "name": "spender",
          "type": "address"
        },
        {
          "internalType": "uint256",
          "name": "subtractedValue",
          "type": "uint256"
        }
      ],
      "name": "decreaseAllowance",
      "outputs": [
        {
          "internalType": "bool",
          "name": "",
          "type": "bool"
        }
      ],
      "stateMutability": "nonpayable",
      "type": "function"
    },
    {
      "inputs": [
        {
          "internalType": "address",
          "name": "token",
          "type": "address"
        },
        {
          "internalType": "uint256",
          "name": "amount",
          "type": "uint256"
        }
      ],
      "name": "flashFee",
      "outputs": [
        {
          "internalType": "uint256",
          "name": "",
          "type": "uint256"
        }
      ],
      "stateMutability": "view",
      "type": "function"
    },
    {
      "inputs": [
        {
          "internalType": "contract IERC3156FlashBorrowerUpgradeable",
          "name": "receiver",
          "type": "address"
        },
        {
          "internalType": "address",
          "name": "token",
          "type": "address"
        },
        {
          "internalType": "uint256",
          "name": "amount",
          "type": "uint256"
        },
        {
          "internalType": "bytes",
          "name": "data",
          "type": "bytes"
        }
      ],
      "name": "flashLoan",
      "outputs": [
        {
          "internalType": "bool",
          "name": "",
          "type": "bool"
        }
      ],
      "stateMutability": "nonpayable",
      "type": "function"
    },
    {
      "inputs": [
        {
          "internalType": "address",
          "name": "spender",
          "type": "address"
        },
        {
          "internalType": "uint256",
          "name": "addedValue",
          "type": "uint256"
        }
      ],
      "name": "increaseAllowance",
      "outputs": [
        {
          "internalType": "bool",
          "name": "",
          "type": "bool"
        }
      ],
      "stateMutability": "nonpayable",
      "type": "function"
    },
    {
      "inputs": [
        {
          "internalType": "address",
          "name": "token",
          "type": "address"
        }
      ],
      "name": "maxFlashLoan",
      "outputs": [
        {
          "internalType": "uint256",
          "name": "",
          "type": "uint256"
        }
      ],
      "stateMutability": "view",
      "type": "function"
    },
    {
      "inputs": [],
      "name": "name",
      "outputs": [
        {
          "internalType": "string",
          "name": "",
          "type": "string"
        }
      ],
      "stateMutability": "view",
      "type": "function"
    },
    {
      "inputs": [],
      "name": "owner",
      "outputs": [
        {
          "internalType": "address",
          "name": "",
          "type": "address"
        }
      ],
      "stateMutability": "view",
      "type": "function"
    },
    {
      "inputs": [],
      "name": "paused",
      "outputs": [
        {
          "internalType": "bool",
          "name": "",
          "type": "bool"
        }
      ],
      "stateMutability": "view",
      "type": "function"
    },
    {
      "inputs": [],
      "name": "proxiableUUID",
      "outputs": [
        {
          "internalType": "bytes32",
          "name": "",
          "type": "bytes32"
        }
      ],
      "stateMutability": "view",
      "type": "function"
    },
    {
      "inputs": [],
      "name": "renounceOwnership",
      "outputs": [],
      "stateMutability": "nonpayable",
      "type": "function"
    },
    {
      "inputs": [],
      "name": "symbol",
      "outputs": [
        {
          "internalType": "string",
          "name": "",
          "type": "string"
        }
      ],
      "stateMutability": "view",
      "type": "function"
    },
    {
      "inputs": [],
      "name": "totalSupply",
      "outputs": [
        {
          "internalType": "uint256",
          "name": "",
          "type": "uint256"
        }
      ],
      "stateMutability": "view",
      "type": "function"
    },
    {
      "inputs": [
        {
          "internalType": "address",
          "name": "to",
          "type": "address"
        },
        {
          "internalType": "uint256",
          "name": "amount",
          "type": "uint256"
        }
      ],
      "name": "transfer",
      "outputs": [
        {
          "internalType": "bool",
          "name": "",
          "type": "bool"
        }
      ],
      "stateMutability": "nonpayable",
      "type": "function"
    },
    {
      "inputs": [
        {
          "internalType": "address",
          "name": "from",
          "type": "address"
        },
        {
          "internalType": "address",
          "name": "to",
          "type": "address"
        },
        {
          "internalType": "uint256",
          "name": "amount",
          "type": "uint256"
        }
      ],
      "name": "transferFrom",
      "outputs": [
        {
          "internalType": "bool",
          "name": "",
          "type": "bool"
        }
      ],
      "stateMutability": "nonpayable",
      "type": "function"
    },
    {
      "inputs": [
        {
          "internalType": "address",
          "name": "newOwner",
          "type": "address"
        }
      ],
      "name": "transferOwnership",
      "outputs": [],
      "stateMutability": "nonpayable",
      "type": "function"
    },
    {
      "inputs": [
        {
          "internalType": "address",
          "name": "newImplementation",
          "type": "address"
        }
      ],
      "name": "upgradeTo",
      "outputs": [],
      "stateMutability": "nonpayable",
      "type": "function"
    },
    {
      "inputs": [
        {
          "internalType": "address",
          "name": "newImplementation",
          "type": "address"
        },
        {
          "internalType": "bytes",
          "name": "data",
          "type": "bytes"
        }
      ],
      "name": "upgradeToAndCall",
      "outputs": [],
      "stateMutability": "payable",
      "type": "function"
    },
    {
      "inputs": [],
      "name": "initialize",
      "outputs": [],
      "stateMutability": "nonpayable",
      "type": "function"
    },
    {
      "inputs": [],
      "name": "pause",
      "outputs": [],
      "stateMutability": "nonpayable",
      "type": "function"
    },
    {
      "inputs": [],
      "name": "unpause",
      "outputs": [],
      "stateMutability": "nonpayable",
      "type": "function"
    },
    {
      "inputs": [
        {
          "internalType": "address",
          "name": "to",
          "type": "address"
        },
        {
          "internalType": "uint256",
          "name": "amount",
          "type": "uint256"
        }
      ],
      "name": "mint",
      "outputs": [],
      "stateMutability": "nonpayable",
      "type": "function"
    }
  ],
  "bytecode": "0x60a06040523073ffffffffffffffffffffffffffffffffffffffff1660809073ffffffffffffffffffffffffffffffffffffffff168152503480156200004457600080fd5b50620000556200005b60201b60201c565b62000206565b600060019054906101000a900460ff1615620000ae576040517f08c379a0000000000000000000000000000000000000000000000000000000008152600401620000a590620001a9565b60405180910390fd5b60ff801660008054906101000a900460ff1660ff161015620001205760ff6000806101000a81548160ff021916908360ff1602179055507f7f26b83ff96e1f2b6a682f133852f6798a09c465da95921460cefb384740249860ff604051620001179190620001e9565b60405180910390a15b565b600082825260208201905092915050565b7f496e697469616c697a61626c653a20636f6e747261637420697320696e69746960008201527f616c697a696e6700000000000000000000000000000000000000000000000000602082015250565b60006200019160278362000122565b91506200019e8262000133565b604082019050919050565b60006020820190508181036000830152620001c48162000182565b9050919050565b600060ff82169050919050565b620001e381620001cb565b82525050565b6000602082019050620002006000830184620001d8565b92915050565b608051613f7c6200023e6000396000818161076e015281816107fc01528181610969015281816109f70152610aa70152613f7c6000f3fe60806040526004361061019c5760003560e01c80635cffe9de116100ec5780638da5cb5b1161008a578063a9059cbb11610064578063a9059cbb14610595578063d9d98ce4146105d2578063dd62ed3e1461060f578063f2fde38b1461064c5761019c565b80638da5cb5b1461050257806395d89b411461052d578063a457c2d7146105585761019c565b8063715018a6116100c6578063715018a61461049457806379cc6790146104ab5780638129fc1c146104d45780638456cb59146104eb5761019c565b80635cffe9de146103dd578063613255ab1461041a57806370a08231146104575761019c565b8063395093511161015957806342966c681161013357806342966c68146103425780634f1ef2861461036b57806352d1902d146103875780635c975abb146103b25761019c565b806339509351146102c55780633f4ba83a1461030257806340c10f19146103195761019c565b806306fdde03146101a1578063095ea7b3146101cc57806318160ddd1461020957806323b872dd14610234578063313ce567146102715780633659cfe61461029c575b600080fd5b3480156101ad57600080fd5b506101b6610675565b6040516101c3919061264e565b60405180910390f35b3480156101d857600080fd5b506101f360048036038101906101ee9190612718565b610707565b6040516102009190612773565b60405180910390f35b34801561021557600080fd5b5061021e61072a565b60405161022b919061279d565b60405180910390f35b34801561024057600080fd5b5061025b600480360381019061025691906127b8565b610734565b6040516102689190612773565b60405180910390f35b34801561027d57600080fd5b50610286610763565b6040516102939190612827565b60405180910390f35b3480156102a857600080fd5b506102c360048036038101906102be9190612842565b61076c565b005b3480156102d157600080fd5b506102ec60048036038101906102e79190612718565b6108f4565b6040516102f99190612773565b60405180910390f35b34801561030e57600080fd5b5061031761092b565b005b34801561032557600080fd5b50610340600480360381019061033b9190612718565b61093d565b005b34801561034e57600080fd5b506103696004803603810190610364919061286f565b610953565b005b610385600480360381019061038091906129d1565b610967565b005b34801561039357600080fd5b5061039c610aa3565b6040516103a99190612a46565b60405180910390f35b3480156103be57600080fd5b506103c7610b5c565b6040516103d49190612773565b60405180910390f35b3480156103e957600080fd5b5061040460048036038101906103ff9190612aff565b610b73565b6040516104119190612773565b60405180910390f35b34801561042657600080fd5b50610441600480360381019061043c9190612842565b610d60565b60405161044e919061279d565b60405180910390f35b34801561046357600080fd5b5061047e60048036038101906104799190612842565b610dd7565b60405161048b919061279d565b60405180910390f35b3480156104a057600080fd5b506104a9610e20565b005b3480156104b757600080fd5b506104d260048036038101906104cd9190612718565b610e34565b005b3480156104e057600080fd5b506104e9610e54565b005b3480156104f757600080fd5b50610500611026565b005b34801561050e57600080fd5b50610517611038565b6040516105249190612b96565b60405180910390f35b34801561053957600080fd5b50610542611062565b60405161054f919061264e565b60405180910390f35b34801561056457600080fd5b5061057f600480360381019061057a9190612718565b6110f4565b60405161058c9190612773565b60405180910390f35b3480156105a157600080fd5b506105bc60048036038101906105b79190612718565b61116b565b6040516105c99190612773565b60405180910390f35b3480156105de57600080fd5b506105f960048036038101906105f49190612718565b61118e565b604051610606919061279d565b60405180910390f35b34801561061b57600080fd5b5061063660048036038101906106319190612bb1565b611210565b604051610643919061279d565b60405180910390f35b34801561065857600080fd5b50610673600480360381019061066e9190612842565b611297565b005b60606036805461068490612c20565b80601f01602080910402602001604051908101604052809291908181526020018280546106b090612c20565b80156106fd5780601f106106d2576101008083540402835291602001916106fd565b820191906000526020600020905b8154815290600101906020018083116106e057829003601f168201915b5050505050905090565b60008061071261131a565b905061071f818585611322565b600191505092915050565b6000603554905090565b60008061073f61131a565b905061074c8582856114eb565b610757858585611577565b60019150509392505050565b60006012905090565b7f000000000000000000000000000000000000000000000000000000000000000073ffffffffffffffffffffffffffffffffffffffff163073ffffffffffffffffffffffffffffffffffffffff16036107fa576040517f08c379a00000000000000000000000000000000000000000000000000000000081526004016107f190612cc3565b60405180910390fd5b7f000000000000000000000000000000000000000000000000000000000000000073ffffffffffffffffffffffffffffffffffffffff166108396117f0565b73ffffffffffffffffffffffffffffffffffffffff161461088f576040517f08c379a000000000000000000000000000000000000000000000000000000000815260040161088690612d55565b60405180910390fd5b61089881611847565b6108f181600067ffffffffffffffff8111156108b7576108b66128a6565b5b6040519080825280601f01601f1916602001820160405280156108e95781602001600182028036833780820191505090505b506000611852565b50565b6000806108ff61131a565b90506109208185856109118589611210565b61091b9190612da4565b611322565b600191505092915050565b6109336119c0565b61093b611a3e565b565b6109456119c0565b61094f8282611aa1565b5050565b61096461095e61131a565b82611bf8565b50565b7f000000000000000000000000000000000000000000000000000000000000000073ffffffffffffffffffffffffffffffffffffffff163073ffffffffffffffffffffffffffffffffffffffff16036109f5576040517f08c379a00000000000000000000000000000000000000000000000000000000081526004016109ec90612cc3565b60405180910390fd5b7f000000000000000000000000000000000000000000000000000000000000000073ffffffffffffffffffffffffffffffffffffffff16610a346117f0565b73ffffffffffffffffffffffffffffffffffffffff1614610a8a576040517f08c379a0000000000000000000000000000000000000000000000000000000008152600401610a8190612d55565b60405180910390fd5b610a9382611847565b610a9f82826001611852565b5050565b60007f000000000000000000000000000000000000000000000000000000000000000073ffffffffffffffffffffffffffffffffffffffff163073ffffffffffffffffffffffffffffffffffffffff1614610b33576040517f08c379a0000000000000000000000000000000000000000000000000000000008152600401610b2a90612e6c565b60405180910390fd5b7f360894a13ba1a3210667c828492db98dca3e2076cc3735a920a3ca505d382bbc60001b905090565b6000609760009054906101000a900460ff16905090565b6000610b7e85610d60565b841115610bc0576040517f08c379a0000000000000000000000000000000000000000000000000000000008152600401610bb790612efe565b60405180910390fd5b6000610bcc868661118e565b9050610bd88786611aa1565b7f439148f0bbc682ca079e46d6e2c2f0c1e3b820f1a291b069d8882abf8cf18dd98773ffffffffffffffffffffffffffffffffffffffff166323e30c8b338989868a8a6040518763ffffffff1660e01b8152600401610c3c96959493929190612f5c565b6020604051808303816000875af1158015610c5b573d6000803e3d6000fd5b505050506040513d601f19601f82011682018060405250810190610c7f9190612fe4565b14610cbf576040517f08c379a0000000000000000000000000000000000000000000000000000000008152600401610cb690613083565b60405180910390fd5b6000610cc9611dc7565b9050610ce188308489610cdc9190612da4565b6114eb565b6000821480610d1c5750600073ffffffffffffffffffffffffffffffffffffffff168173ffffffffffffffffffffffffffffffffffffffff16145b15610d3b57610d36888388610d319190612da4565b611bf8565b610d51565b610d458887611bf8565b610d50888284611577565b5b60019250505095945050505050565b60003073ffffffffffffffffffffffffffffffffffffffff168273ffffffffffffffffffffffffffffffffffffffff1614610d9c576000610dd0565b610da461072a565b7fffffffffffffffffffffffffffffffffffffffffffffffffffffffffffffffff610dcf91906130a3565b5b9050919050565b6000603360008373ffffffffffffffffffffffffffffffffffffffff1673ffffffffffffffffffffffffffffffffffffffff168152602001908152602001600020549050919050565b610e286119c0565b610e326000611dcc565b565b610e4682610e4061131a565b836114eb565b610e508282611bf8565b5050565b60008060019054906101000a900460ff16159050808015610e855750600160008054906101000a900460ff1660ff16105b80610eb25750610e9430611e92565b158015610eb15750600160008054906101000a900460ff1660ff16145b5b610ef1576040517f08c379a0000000000000000000000000000000000000000000000000000000008152600401610ee890613149565b60405180910390fd5b60016000806101000a81548160ff021916908360ff1602179055508015610f2e576001600060016101000a81548160ff0219169083151502179055505b610fa26040518060400160405280600f81526020017f4d65646963616c45786368616e676500000000000000000000000000000000008152506040518060400160405280600381526020017f4d44430000000000000000000000000000000000000000000000000000000000815250611eb5565b610faa611f12565b610fb2611f63565b610fba611fbc565b610fc2612015565b610fca612066565b80156110235760008060016101000a81548160ff0219169083151502179055507f7f26b83ff96e1f2b6a682f133852f6798a09c465da95921460cefb3847402498600160405161101a91906131ae565b60405180910390a15b50565b61102e6119c0565b6110366120b7565b565b600060c960009054906101000a900473ffffffffffffffffffffffffffffffffffffffff16905090565b60606037805461107190612c20565b80601f016020809104026020016040519081016040528092919081815260200182805461109d90612c20565b80156110ea5780601f106110bf576101008083540402835291602001916110ea565b820191906000526020600020905b8154815290600101906020018083116110cd57829003601f168201915b5050505050905090565b6000806110ff61131a565b9050600061110d8286611210565b905083811015611152576040517f08c379a00000000000000000000000000000000000000000000000000000000081526004016111499061323b565b60405180910390fd5b61115f8286868403611322565b60019250505092915050565b60008061117661131a565b9050611183818585611577565b600191505092915050565b60003073ffffffffffffffffffffffffffffffffffffffff168373ffffffffffffffffffffffffffffffffffffffff16146111fe576040517f08c379a00000000000000000000000000000000000000000000000000000000081526004016111f5906132a7565b60405180910390fd5b611208838361211a565b905092915050565b6000603460008473ffffffffffffffffffffffffffffffffffffffff1673ffffffffffffffffffffffffffffffffffffffff16815260200190815260200160002060008373ffffffffffffffffffffffffffffffffffffffff1673ffffffffffffffffffffffffffffffffffffffff16815260200190815260200160002054905092915050565b61129f6119c0565b600073ffffffffffffffffffffffffffffffffffffffff168173ffffffffffffffffffffffffffffffffffffffff160361130e576040517f08c379a000000000000000000000000000000000000000000000000000000000815260040161130590613339565b60405180910390fd5b61131781611dcc565b50565b600033905090565b600073ffffffffffffffffffffffffffffffffffffffff168373ffffffffffffffffffffffffffffffffffffffff1603611391576040517f08c379a0000000000000000000000000000000000000000000000000000000008152600401611388906133cb565b60405180910390fd5b600073ffffffffffffffffffffffffffffffffffffffff168273ffffffffffffffffffffffffffffffffffffffff1603611400576040517f08c379a00000000000000000000000000000000000000000000000000000000081526004016113f79061345d565b60405180910390fd5b80603460008573ffffffffffffffffffffffffffffffffffffffff1673ffffffffffffffffffffffffffffffffffffffff16815260200190815260200160002060008473ffffffffffffffffffffffffffffffffffffffff1673ffffffffffffffffffffffffffffffffffffffff168152602001908152602001600020819055508173ffffffffffffffffffffffffffffffffffffffff168373ffffffffffffffffffffffffffffffffffffffff167f8c5be1e5ebec7d5bd14f71427d1e84f3dd0314c0f7b2291e5b200ac8c7c3b925836040516114de919061279d565b60405180910390a3505050565b60006114f78484611210565b90507fffffffffffffffffffffffffffffffffffffffffffffffffffffffffffffffff81146115715781811015611563576040517f08c379a000000000000000000000000000000000000000000000000000000000815260040161155a906134c9565b60405180910390fd5b6115708484848403611322565b5b50505050565b600073ffffffffffffffffffffffffffffffffffffffff168373ffffffffffffffffffffffffffffffffffffffff16036115e6576040517f08c379a00000000000000000000000000000000000000000000000000000000081526004016115dd9061355b565b60405180910390fd5b600073ffffffffffffffffffffffffffffffffffffffff168273ffffffffffffffffffffffffffffffffffffffff1603611655576040517f08c379a000000000000000000000000000000000000000000000000000000000815260040161164c906135ed565b60405180910390fd5b611660838383612122565b6000603360008573ffffffffffffffffffffffffffffffffffffffff1673ffffffffffffffffffffffffffffffffffffffff168152602001908152602001600020549050818110156116e7576040517f08c379a00000000000000000000000000000000000000000000000000000000081526004016116de9061367f565b60405180910390fd5b818103603360008673ffffffffffffffffffffffffffffffffffffffff1673ffffffffffffffffffffffffffffffffffffffff1681526020019081526020016000208190555081603360008573ffffffffffffffffffffffffffffffffffffffff1673ffffffffffffffffffffffffffffffffffffffff168152602001908152602001600020600082825401925050819055508273ffffffffffffffffffffffffffffffffffffffff168473ffffffffffffffffffffffffffffffffffffffff167fddf252ad1be2c89b69c2b068fc378daa952ba7f163c4a11628f55a4df523b3ef846040516117d7919061279d565b60405180910390a36117ea84848461213a565b50505050565b600061181e7f360894a13ba1a3210667c828492db98dca3e2076cc3735a920a3ca505d382bbc60001b61213f565b60000160009054906101000a900473ffffffffffffffffffffffffffffffffffffffff16905090565b61184f6119c0565b50565b61187e7f4910fdfa16fed3260ed0e7147f7cc6da11a60208b5b9406d12a635614ffd914360001b612149565b60000160009054906101000a900460ff16156118a25761189d83612153565b6119bb565b8273ffffffffffffffffffffffffffffffffffffffff166352d1902d6040518163ffffffff1660e01b8152600401602060405180830381865afa92505050801561190a57506040513d601f19601f820116820180604052508101906119079190612fe4565b60015b611949576040517f08c379a000000000000000000000000000000000000000000000000000000000815260040161194090613711565b60405180910390fd5b7f360894a13ba1a3210667c828492db98dca3e2076cc3735a920a3ca505d382bbc60001b81146119ae576040517f08c379a00000000000000000000000000000000000000000000000000000000081526004016119a5906137a3565b60405180910390fd5b506119ba83838361220c565b5b505050565b6119c861131a565b73ffffffffffffffffffffffffffffffffffffffff166119e6611038565b73ffffffffffffffffffffffffffffffffffffffff1614611a3c576040517f08c379a0000000000000000000000000000000000000000000000000000000008152600401611a339061380f565b60405180910390fd5b565b611a46612238565b6000609760006101000a81548160ff0219169083151502179055507f5db9ee0a495bf2e6ff9c91a7834c1ba4fdd244a5e8aa4e537bd38aeae4b073aa611a8a61131a565b604051611a979190612b96565b60405180910390a1565b600073ffffffffffffffffffffffffffffffffffffffff168273ffffffffffffffffffffffffffffffffffffffff1603611b10576040517f08c379a0000000000000000000000000000000000000000000000000000000008152600401611b079061387b565b60405180910390fd5b611b1c60008383612122565b8060356000828254611b2e9190612da4565b9250508190555080603360008473ffffffffffffffffffffffffffffffffffffffff1673ffffffffffffffffffffffffffffffffffffffff168152602001908152602001600020600082825401925050819055508173ffffffffffffffffffffffffffffffffffffffff16600073ffffffffffffffffffffffffffffffffffffffff167fddf252ad1be2c89b69c2b068fc378daa952ba7f163c4a11628f55a4df523b3ef83604051611be0919061279d565b60405180910390a3611bf46000838361213a565b5050565b600073ffffffffffffffffffffffffffffffffffffffff168273ffffffffffffffffffffffffffffffffffffffff1603611c67576040517f08c379a0000000000000000000000000000000000000000000000000000000008152600401611c5e9061390d565b60405180910390fd5b611c7382600083612122565b6000603360008473ffffffffffffffffffffffffffffffffffffffff1673ffffffffffffffffffffffffffffffffffffffff16815260200190815260200160002054905081811015611cfa576040517f08c379a0000000000000000000000000000000000000000000000000000000008152600401611cf19061399f565b60405180910390fd5b818103603360008573ffffffffffffffffffffffffffffffffffffffff1673ffffffffffffffffffffffffffffffffffffffff1681526020019081526020016000208190555081603560008282540392505081905550600073ffffffffffffffffffffffffffffffffffffffff168373ffffffffffffffffffffffffffffffffffffffff167fddf252ad1be2c89b69c2b068fc378daa952ba7f163c4a11628f55a4df523b3ef84604051611dae919061279d565b60405180910390a3611dc28360008461213a565b505050565b600090565b600060c960009054906101000a900473ffffffffffffffffffffffffffffffffffffffff1690508160c960006101000a81548173ffffffffffffffffffffffffffffffffffffffff021916908373ffffffffffffffffffffffffffffffffffffffff1602179055508173ffffffffffffffffffffffffffffffffffffffff168173ffffffffffffffffffffffffffffffffffffffff167f8be0079c531659141344cd1fd0a4f28419497f9722a3daafe3b4186f6b6457e060405160405180910390a35050565b6000808273ffffffffffffffffffffffffffffffffffffffff163b119050919050565b600060019054906101000a900460ff16611f04576040517f08c379a0000000000000000000000000000000000000000000000000000000008152600401611efb90613a31565b60405180910390fd5b611f0e8282612281565b5050565b600060019054906101000a900460ff16611f61576040517f08c379a0000000000000000000000000000000000000000000000000000000008152600401611f5890613a31565b60405180910390fd5b565b600060019054906101000a900460ff16611fb2576040517f08c379a0000000000000000000000000000000000000000000000000000000008152600401611fa990613a31565b60405180910390fd5b611fba6122f4565b565b600060019054906101000a900460ff1661200b576040517f08c379a000000000000000000000000000000000000000000000000000000000815260040161200290613a31565b60405180910390fd5b612013612360565b565b600060019054906101000a900460ff16612064576040517f08c379a000000000000000000000000000000000000000000000000000000000815260040161205b90613a31565b60405180910390fd5b565b600060019054906101000a900460ff166120b5576040517f08c379a00000000000000000000000000000000000000000000000000000000081526004016120ac90613a31565b60405180910390fd5b565b6120bf6123c1565b6001609760006101000a81548160ff0219169083151502179055507f62e78cea01bee320cd4e420270b5ea74000d11b0c9f74754ebdbfc544b05a25861210361131a565b6040516121109190612b96565b60405180910390a1565b600092915050565b61212a6123c1565b61213583838361240b565b505050565b505050565b6000819050919050565b6000819050919050565b61215c81611e92565b61219b576040517f08c379a000000000000000000000000000000000000000000000000000000000815260040161219290613ac3565b60405180910390fd5b806121c87f360894a13ba1a3210667c828492db98dca3e2076cc3735a920a3ca505d382bbc60001b61213f565b60000160006101000a81548173ffffffffffffffffffffffffffffffffffffffff021916908373ffffffffffffffffffffffffffffffffffffffff16021790555050565b61221583612410565b6000825111806122225750805b1561223357612231838361245f565b505b505050565b612240610b5c565b61227f576040517f08c379a000000000000000000000000000000000000000000000000000000000815260040161227690613b2f565b60405180910390fd5b565b600060019054906101000a900460ff166122d0576040517f08c379a00000000000000000000000000000000000000000000000000000000081526004016122c790613a31565b60405180910390fd5b81603690816122df9190613cf1565b5080603790816122ef9190613cf1565b505050565b600060019054906101000a900460ff16612343576040517f08c379a000000000000000000000000000000000000000000000000000000000815260040161233a90613a31565b60405180910390fd5b6000609760006101000a81548160ff021916908315150217905550565b600060019054906101000a900460ff166123af576040517f08c379a00000000000000000000000000000000000000000000000000000000081526004016123a690613a31565b60405180910390fd5b6123bf6123ba61131a565b611dcc565b565b6123c9610b5c565b15612409576040517f08c379a000000000000000000000000000000000000000000000000000000000815260040161240090613e0f565b60405180910390fd5b565b505050565b61241981612153565b8073ffffffffffffffffffffffffffffffffffffffff167fbc7cd75a20ee27fd9adebab32041f755214dbc6bffa90cc0225b39da2e5c2d3b60405160405180910390a250565b606061246a83611e92565b6124a9576040517f08c379a00000000000000000000000000000000000000000000000000000000081526004016124a090613ea1565b60405180910390fd5b6000808473ffffffffffffffffffffffffffffffffffffffff16846040516124d19190613f08565b600060405180830381855af49150503d806000811461250c576040519150601f19603f3d011682016040523d82523d6000602084013e612511565b606091505b50915091506125398282604051806060016040528060278152602001613f2060279139612543565b9250505092915050565b606083156125535782905061255e565b61255d8383612565565b5b9392505050565b6000825111156125785781518083602001fd5b806040517f08c379a00000000000000000000000000000000000000000000000000000000081526004016125ac919061264e565b60405180910390fd5b600081519050919050565b600082825260208201905092915050565b60005b838110156125ef5780820151818401526020810190506125d4565b838111156125fe576000848401525b50505050565b6000601f19601f8301169050919050565b6000612620826125b5565b61262a81856125c0565b935061263a8185602086016125d1565b61264381612604565b840191505092915050565b600060208201905081810360008301526126688184612615565b905092915050565b6000604051905090565b600080fd5b600080fd5b600073ffffffffffffffffffffffffffffffffffffffff82169050919050565b60006126af82612684565b9050919050565b6126bf816126a4565b81146126ca57600080fd5b50565b6000813590506126dc816126b6565b92915050565b6000819050919050565b6126f5816126e2565b811461270057600080fd5b50565b600081359050612712816126ec565b92915050565b6000806040838503121561272f5761272e61267a565b5b600061273d858286016126cd565b925050602061274e85828601612703565b9150509250929050565b60008115159050919050565b61276d81612758565b82525050565b60006020820190506127886000830184612764565b92915050565b612797816126e2565b82525050565b60006020820190506127b2600083018461278e565b92915050565b6000806000606084860312156127d1576127d061267a565b5b60006127df868287016126cd565b93505060206127f0868287016126cd565b925050604061280186828701612703565b9150509250925092565b600060ff82169050919050565b6128218161280b565b82525050565b600060208201905061283c6000830184612818565b92915050565b6000602082840312156128585761285761267a565b5b6000612866848285016126cd565b91505092915050565b6000602082840312156128855761288461267a565b5b600061289384828501612703565b91505092915050565b600080fd5b600080fd5b7f4e487b7100000000000000000000000000000000000000000000000000000000600052604160045260246000fd5b6128de82612604565b810181811067ffffffffffffffff821117156128fd576128fc6128a6565b5b80604052505050565b6000612910612670565b905061291c82826128d5565b919050565b600067ffffffffffffffff82111561293c5761293b6128a6565b5b61294582612604565b9050602081019050919050565b82818337600083830152505050565b600061297461296f84612921565b612906565b9050828152602081018484840111156129905761298f6128a1565b5b61299b848285612952565b509392505050565b600082601f8301126129b8576129b761289c565b5b81356129c8848260208601612961565b91505092915050565b600080604083850312156129e8576129e761267a565b5b60006129f6858286016126cd565b925050602083013567ffffffffffffffff811115612a1757612a1661267f565b5b612a23858286016129a3565b9150509250929050565b6000819050919050565b612a4081612a2d565b82525050565b6000602082019050612a5b6000830184612a37565b92915050565b6000612a6c826126a4565b9050919050565b612a7c81612a61565b8114612a8757600080fd5b50565b600081359050612a9981612a73565b92915050565b600080fd5b600080fd5b60008083601f840112612abf57612abe61289c565b5b8235905067ffffffffffffffff811115612adc57612adb612a9f565b5b602083019150836001820283011115612af857612af7612aa4565b5b9250929050565b600080600080600060808688031215612b1b57612b1a61267a565b5b6000612b2988828901612a8a565b9550506020612b3a888289016126cd565b9450506040612b4b88828901612703565b935050606086013567ffffffffffffffff811115612b6c57612b6b61267f565b5b612b7888828901612aa9565b92509250509295509295909350565b612b90816126a4565b82525050565b6000602082019050612bab6000830184612b87565b92915050565b60008060408385031215612bc857612bc761267a565b5b6000612bd6858286016126cd565b9250506020612be7858286016126cd565b9150509250929050565b7f4e487b7100000000000000000000000000000000000000000000000000000000600052602260045260246000fd5b60006002820490506001821680612c3857607f821691505b602082108103612c4b57612c4a612bf1565b5b50919050565b7f46756e6374696f6e206d7573742062652063616c6c6564207468726f7567682060008201527f64656c656761746563616c6c0000000000000000000000000000000000000000602082015250565b6000612cad602c836125c0565b9150612cb882612c51565b604082019050919050565b60006020820190508181036000830152612cdc81612ca0565b9050919050565b7f46756e6374696f6e206d7573742062652063616c6c6564207468726f7567682060008201527f6163746976652070726f78790000000000000000000000000000000000000000602082015250565b6000612d3f602c836125c0565b9150612d4a82612ce3565b604082019050919050565b60006020820190508181036000830152612d6e81612d32565b9050919050565b7f4e487b7100000000000000000000000000000000000000000000000000000000600052601160045260246000fd5b6000612daf826126e2565b9150612dba836126e2565b9250827fffffffffffffffffffffffffffffffffffffffffffffffffffffffffffffffff03821115612def57612dee612d75565b5b828201905092915050565b7f555550535570677261646561626c653a206d757374206e6f742062652063616c60008201527f6c6564207468726f7567682064656c656761746563616c6c0000000000000000602082015250565b6000612e566038836125c0565b9150612e6182612dfa565b604082019050919050565b60006020820190508181036000830152612e8581612e49565b9050919050565b7f4552433230466c6173684d696e743a20616d6f756e742065786365656473206d60008201527f6178466c6173684c6f616e000000000000000000000000000000000000000000602082015250565b6000612ee8602b836125c0565b9150612ef382612e8c565b604082019050919050565b60006020820190508181036000830152612f1781612edb565b9050919050565b600082825260208201905092915050565b6000612f3b8385612f1e565b9350612f48838584612952565b612f5183612604565b840190509392505050565b600060a082019050612f716000830189612b87565b612f7e6020830188612b87565b612f8b604083018761278e565b612f98606083018661278e565b8181036080830152612fab818486612f2f565b9050979650505050505050565b612fc181612a2d565b8114612fcc57600080fd5b50565b600081519050612fde81612fb8565b92915050565b600060208284031215612ffa57612ff961267a565b5b600061300884828501612fcf565b91505092915050565b7f4552433230466c6173684d696e743a20696e76616c69642072657475726e207660008201527f616c756500000000000000000000000000000000000000000000000000000000602082015250565b600061306d6024836125c0565b915061307882613011565b604082019050919050565b6000602082019050818103600083015261309c81613060565b9050919050565b60006130ae826126e2565b91506130b9836126e2565b9250828210156130cc576130cb612d75565b5b828203905092915050565b7f496e697469616c697a61626c653a20636f6e747261637420697320616c72656160008201527f647920696e697469616c697a6564000000000000000000000000000000000000602082015250565b6000613133602e836125c0565b915061313e826130d7565b604082019050919050565b6000602082019050818103600083015261316281613126565b9050919050565b6000819050919050565b6000819050919050565b600061319861319361318e84613169565b613173565b61280b565b9050919050565b6131a88161317d565b82525050565b60006020820190506131c3600083018461319f565b92915050565b7f45524332303a2064656372656173656420616c6c6f77616e63652062656c6f7760008201527f207a65726f000000000000000000000000000000000000000000000000000000602082015250565b60006132256025836125c0565b9150613230826131c9565b604082019050919050565b6000602082019050818103600083015261325481613218565b9050919050565b7f4552433230466c6173684d696e743a2077726f6e6720746f6b656e0000000000600082015250565b6000613291601b836125c0565b915061329c8261325b565b602082019050919050565b600060208201905081810360008301526132c081613284565b9050919050565b7f4f776e61626c653a206e6577206f776e657220697320746865207a65726f206160008201527f6464726573730000000000000000000000000000000000000000000000000000602082015250565b60006133236026836125c0565b915061332e826132c7565b604082019050919050565b6000602082019050818103600083015261335281613316565b9050919050565b7f45524332303a20617070726f76652066726f6d20746865207a65726f2061646460008201527f7265737300000000000000000000000000000000000000000000000000000000602082015250565b60006133b56024836125c0565b91506133c082613359565b604082019050919050565b600060208201905081810360008301526133e4816133a8565b9050919050565b7f45524332303a20617070726f766520746f20746865207a65726f20616464726560008201527f7373000000000000000000000000000000000000000000000000000000000000602082015250565b60006134476022836125c0565b9150613452826133eb565b604082019050919050565b600060208201905081810360008301526134768161343a565b9050919050565b7f45524332303a20696e73756666696369656e7420616c6c6f77616e6365000000600082015250565b60006134b3601d836125c0565b91506134be8261347d565b602082019050919050565b600060208201905081810360008301526134e2816134a6565b9050919050565b7f45524332303a207472616e736665722066726f6d20746865207a65726f20616460008201527f6472657373000000000000000000000000000000000000000000000000000000602082015250565b60006135456025836125c0565b9150613550826134e9565b604082019050919050565b6000602082019050818103600083015261357481613538565b9050919050565b7f45524332303a207472616e7366657220746f20746865207a65726f206164647260008201527f6573730000000000000000000000000000000000000000000000000000000000602082015250565b60006135d76023836125c0565b91506135e28261357b565b604082019050919050565b60006020820190508181036000830152613606816135ca565b9050919050565b7f45524332303a207472616e7366657220616d6f756e742065786365656473206260008201527f616c616e63650000000000000000000000000000000000000000000000000000602082015250565b60006136696026836125c0565b91506136748261360d565b604082019050919050565b600060208201905081810360008301526136988161365c565b9050919050565b7f45524331393637557067726164653a206e657720696d706c656d656e7461746960008201527f6f6e206973206e6f742055555053000000000000000000000000000000000000602082015250565b60006136fb602e836125c0565b91506137068261369f565b604082019050919050565b6000602082019050818103600083015261372a816136ee565b9050919050565b7f45524331393637557067726164653a20756e737570706f727465642070726f7860008201527f6961626c65555549440000000000000000000000000000000000000000000000602082015250565b600061378d6029836125c0565b915061379882613731565b604082019050919050565b600060208201905081810360008301526137bc81613780565b9050919050565b7f4f776e61626c653a2063616c6c6572206973206e6f7420746865206f776e6572600082015250565b60006137f96020836125c0565b9150613804826137c3565b602082019050919050565b60006020820190508181036000830152613828816137ec565b9050919050565b7f45524332303a206d696e7420746f20746865207a65726f206164647265737300600082015250565b6000613865601f836125c0565b91506138708261382f565b602082019050919050565b6000602082019050818103600083015261389481613858565b9050919050565b7f45524332303a206275726e2066726f6d20746865207a65726f2061646472657360008201527f7300000000000000000000000000000000000000000000000000000000000000602082015250565b60006138f76021836125c0565b91506139028261389b565b604082019050919050565b60006020820190508181036000830152613926816138ea565b9050919050565b7f45524332303a206275726e20616d6f756e7420657863656564732062616c616e60008201527f6365000000000000000000000000000000000000000000000000000000000000602082015250565b60006139896022836125c0565b91506139948261392d565b604082019050919050565b600060208201905081810360008301526139b88161397c565b9050919050565b7f496e697469616c697a61626c653a20636f6e7472616374206973206e6f74206960008201527f6e697469616c697a696e67000000000000000000000000000000000000000000602082015250565b6000613a1b602b836125c0565b9150613a26826139bf565b604082019050919050565b60006020820190508181036000830152613a4a81613a0e565b9050919050565b7f455243313936373a206e657720696d706c656d656e746174696f6e206973206e60008201527f6f74206120636f6e747261637400000000000000000000000000000000000000602082015250565b6000613aad602d836125c0565b9150613ab882613a51565b604082019050919050565b60006020820190508181036000830152613adc81613aa0565b9050919050565b7f5061757361626c653a206e6f7420706175736564000000000000000000000000600082015250565b6000613b196014836125c0565b9150613b2482613ae3565b602082019050919050565b60006020820190508181036000830152613b4881613b0c565b9050919050565b60008190508160005260206000209050919050565b60006020601f8301049050919050565b600082821b905092915050565b600060088302613bb17fffffffffffffffffffffffffffffffffffffffffffffffffffffffffffffffff82613b74565b613bbb8683613b74565b95508019841693508086168417925050509392505050565b6000613bee613be9613be4846126e2565b613173565b6126e2565b9050919050565b6000819050919050565b613c0883613bd3565b613c1c613c1482613bf5565b848454613b81565b825550505050565b600090565b613c31613c24565b613c3c818484613bff565b505050565b5b81811015613c6057613c55600082613c29565b600181019050613c42565b5050565b601f821115613ca557613c7681613b4f565b613c7f84613b64565b81016020851015613c8e578190505b613ca2613c9a85613b64565b830182613c41565b50505b505050565b600082821c905092915050565b6000613cc860001984600802613caa565b1980831691505092915050565b6000613ce18383613cb7565b9150826002028217905092915050565b613cfa826125b5565b67ffffffffffffffff811115613d1357613d126128a6565b5b613d1d8254612c20565b613d28828285613c64565b600060209050601f831160018114613d5b5760008415613d49578287015190505b613d538582613cd5565b865550613dbb565b601f198416613d6986613b4f565b60005b82811015613d9157848901518255600182019150602085019450602081019050613d6c565b86831015613dae5784890151613daa601f891682613cb7565b8355505b6001600288020188555050505b505050505050565b7f5061757361626c653a2070617573656400000000000000000000000000000000600082015250565b6000613df96010836125c0565b9150613e0482613dc3565b602082019050919050565b60006020820190508181036000830152613e2881613dec565b9050919050565b7f416464726573733a2064656c65676174652063616c6c20746f206e6f6e2d636f60008201527f6e74726163740000000000000000000000000000000000000000000000000000602082015250565b6000613e8b6026836125c0565b9150613e9682613e2f565b604082019050919050565b60006020820190508181036000830152613eba81613e7e565b9050919050565b600081519050919050565b600081905092915050565b6000613ee282613ec1565b613eec8185613ecc565b9350613efc8185602086016125d1565b80840191505092915050565b6000613f148284613ed7565b91508190509291505056fe416464726573733a206c6f772d6c6576656c2064656c65676174652063616c6c206661696c6564a2646970667358221220b9e6988e7529d2a98ac78d62323a1889d40c99b2f407be089d74dfb156e27b8e64736f6c634300080f0033",
  "immutableReferences": {
    "778": [
      {
        "length": 32,
        "start": 1902
      },
      {
        "length": 32,
        "start": 2044
      },
      {
        "length": 32,
        "start": 2409
      },
      {
        "length": 32,
        "start": 2551
      },
      {
        "length": 32,
        "start": 2727
      }
    ]
  },
  "source": "// SPDX-License-Identifier: MIT\npragma solidity ^0.8.15;\n\nimport \"@openzeppelin/contracts-upgradeable/token/ERC20/ERC20Upgradeable.sol\";\nimport \"@openzeppelin/contracts-upgradeable/token/ERC20/extensions/ERC20BurnableUpgradeable.sol\";\nimport \"@openzeppelin/contracts-upgradeable/security/PausableUpgradeable.sol\";\nimport \"@openzeppelin/contracts-upgradeable/access/OwnableUpgradeable.sol\";\nimport \"@openzeppelin/contracts-upgradeable/token/ERC20/extensions/ERC20FlashMintUpgradeable.sol\";\nimport \"@openzeppelin/contracts-upgradeable/proxy/utils/Initializable.sol\";\nimport \"@openzeppelin/contracts-upgradeable/proxy/utils/UUPSUpgradeable.sol\";\n\ncontract MedicalExchange is Initializable, ERC20Upgradeable, ERC20BurnableUpgradeable, PausableUpgradeable, OwnableUpgradeable, ERC20FlashMintUpgradeable, UUPSUpgradeable {\n    /// @custom:oz-upgrades-unsafe-allow constructor\n    constructor() {\n        _disableInitializers();\n    }\n\n    function initialize() initializer public {\n        __ERC20_init(\"MedicalExchange\", \"MDC\");\n        __ERC20Burnable_init();\n        __Pausable_init();\n        __Ownable_init();\n        __ERC20FlashMint_init();\n        __UUPSUpgradeable_init();\n    }\n\n    function pause() public onlyOwner {\n        _pause();\n    }\n\n    function unpause() public onlyOwner {\n        _unpause();\n    }\n\n    function mint(address to, uint256 amount) public onlyOwner {\n        _mint(to, amount);\n    }\n\n    function _beforeTokenTransfer(address from, address to, uint256 amount)\n        internal\n        whenNotPaused\n        override\n    {\n        super._beforeTokenTransfer(from, to, amount);\n    }\n\n    function _authorizeUpgrade(address newImplementation)\n        internal\n        onlyOwner\n        override\n    {}\n}\n",
  "sourcePath": "D:\\Projects\\chainsaw\\contracts\\MedicalExchange.sol",
  "compiler": {
    "name": "solc",
    "version": "0.8.15+commit.e14f2714.Emscripten.clang"
  },
  "schemaVersion": "3.4.10",
  "updatedAt": "2022-11-23T14:38:27.389Z",
  "devdoc": {
    "kind": "dev",
    "methods": {
      "allowance(address,address)": {
        "details": "See {IERC20-allowance}."
      },
      "approve(address,uint256)": {
        "details": "See {IERC20-approve}. NOTE: If `amount` is the maximum `uint256`, the allowance is not updated on `transferFrom`. This is semantically equivalent to an infinite approval. Requirements: - `spender` cannot be the zero address."
      },
      "balanceOf(address)": {
        "details": "See {IERC20-balanceOf}."
      },
      "burn(uint256)": {
        "details": "Destroys `amount` tokens from the caller. See {ERC20-_burn}."
      },
      "burnFrom(address,uint256)": {
        "details": "Destroys `amount` tokens from `account`, deducting from the caller's allowance. See {ERC20-_burn} and {ERC20-allowance}. Requirements: - the caller must have allowance for ``accounts``'s tokens of at least `amount`."
      },
      "constructor": {
        "custom:oz-upgrades-unsafe-allow": "constructor"
      },
      "decimals()": {
        "details": "Returns the number of decimals used to get its user representation. For example, if `decimals` equals `2`, a balance of `505` tokens should be displayed to a user as `5.05` (`505 / 10 ** 2`). Tokens usually opt for a value of 18, imitating the relationship between Ether and Wei. This is the value {ERC20} uses, unless this function is overridden; NOTE: This information is only used for _display_ purposes: it in no way affects any of the arithmetic of the contract, including {IERC20-balanceOf} and {IERC20-transfer}."
      },
      "decreaseAllowance(address,uint256)": {
        "details": "Atomically decreases the allowance granted to `spender` by the caller. This is an alternative to {approve} that can be used as a mitigation for problems described in {IERC20-approve}. Emits an {Approval} event indicating the updated allowance. Requirements: - `spender` cannot be the zero address. - `spender` must have allowance for the caller of at least `subtractedValue`."
      },
      "flashFee(address,uint256)": {
        "details": "Returns the fee applied when doing flash loans. This function calls the {_flashFee} function which returns the fee applied when doing flash loans.",
        "params": {
          "amount": "The amount of tokens to be loaned.",
          "token": "The token to be flash loaned."
        },
        "returns": {
          "_0": "The fees applied to the corresponding flash loan."
        }
      },
      "flashLoan(address,address,uint256,bytes)": {
        "details": "Performs a flash loan. New tokens are minted and sent to the `receiver`, who is required to implement the {IERC3156FlashBorrower} interface. By the end of the flash loan, the receiver is expected to own amount + fee tokens and have them approved back to the token contract itself so they can be burned.",
        "params": {
          "amount": "The amount of tokens to be loaned.",
          "data": "An arbitrary datafield that is passed to the receiver.",
          "receiver": "The receiver of the flash loan. Should implement the {IERC3156FlashBorrower-onFlashLoan} interface.",
          "token": "The token to be flash loaned. Only `address(this)` is supported."
        },
        "returns": {
          "_0": "`true` if the flash loan was successful."
        }
      },
      "increaseAllowance(address,uint256)": {
        "details": "Atomically increases the allowance granted to `spender` by the caller. This is an alternative to {approve} that can be used as a mitigation for problems described in {IERC20-approve}. Emits an {Approval} event indicating the updated allowance. Requirements: - `spender` cannot be the zero address."
      },
      "maxFlashLoan(address)": {
        "details": "Returns the maximum amount of tokens available for loan.",
        "params": {
          "token": "The address of the token that is requested."
        },
        "returns": {
          "_0": "The amount of token that can be loaned."
        }
      },
      "name()": {
        "details": "Returns the name of the token."
      },
      "owner()": {
        "details": "Returns the address of the current owner."
      },
      "paused()": {
        "details": "Returns true if the contract is paused, and false otherwise."
      },
      "proxiableUUID()": {
        "details": "Implementation of the ERC1822 {proxiableUUID} function. This returns the storage slot used by the implementation. It is used to validate the implementation's compatibility when performing an upgrade. IMPORTANT: A proxy pointing at a proxiable contract should not be considered proxiable itself, because this risks bricking a proxy that upgrades to it, by delegating to itself until out of gas. Thus it is critical that this function revert if invoked through a proxy. This is guaranteed by the `notDelegated` modifier."
      },
      "renounceOwnership()": {
        "details": "Leaves the contract without owner. It will not be possible to call `onlyOwner` functions anymore. Can only be called by the current owner. NOTE: Renouncing ownership will leave the contract without an owner, thereby removing any functionality that is only available to the owner."
      },
      "symbol()": {
        "details": "Returns the symbol of the token, usually a shorter version of the name."
      },
      "totalSupply()": {
        "details": "See {IERC20-totalSupply}."
      },
      "transfer(address,uint256)": {
        "details": "See {IERC20-transfer}. Requirements: - `to` cannot be the zero address. - the caller must have a balance of at least `amount`."
      },
      "transferFrom(address,address,uint256)": {
        "details": "See {IERC20-transferFrom}. Emits an {Approval} event indicating the updated allowance. This is not required by the EIP. See the note at the beginning of {ERC20}. NOTE: Does not update the allowance if the current allowance is the maximum `uint256`. Requirements: - `from` and `to` cannot be the zero address. - `from` must have a balance of at least `amount`. - the caller must have allowance for ``from``'s tokens of at least `amount`."
      },
      "transferOwnership(address)": {
        "details": "Transfers ownership of the contract to a new account (`newOwner`). Can only be called by the current owner."
      },
      "upgradeTo(address)": {
        "details": "Upgrade the implementation of the proxy to `newImplementation`. Calls {_authorizeUpgrade}. Emits an {Upgraded} event."
      },
      "upgradeToAndCall(address,bytes)": {
        "details": "Upgrade the implementation of the proxy to `newImplementation`, and subsequently execute the function call encoded in `data`. Calls {_authorizeUpgrade}. Emits an {Upgraded} event."
      }
    },
    "version": 1
  },
  "userdoc": {
    "kind": "user",
    "methods": {},
    "version": 1
  }
}